{
  "contractName": "VotingSystem",
  "abi": [
    {
      "constant": true,
      "inputs": [],
      "name": "chairperson",
      "outputs": [
        {
          "name": "",
          "type": "address"
        }
      ],
      "payable": false,
      "stateMutability": "view",
      "type": "function",
      "signature": "0x2e4176cf"
    },
    {
      "constant": true,
      "inputs": [
        {
          "name": "",
          "type": "uint256"
        }
      ],
      "name": "candi_Array",
      "outputs": [
        {
          "name": "",
          "type": "uint256"
        }
      ],
      "payable": false,
      "stateMutability": "view",
      "type": "function",
      "signature": "0x3f59cd45"
    },
    {
      "constant": true,
      "inputs": [
        {
          "name": "",
          "type": "uint256"
        }
      ],
      "name": "ballotBox",
      "outputs": [
        {
          "name": "",
          "type": "uint256"
        }
      ],
      "payable": false,
      "stateMutability": "view",
      "type": "function",
      "signature": "0x8233ce15"
    },
    {
      "constant": true,
      "inputs": [
        {
          "name": "",
          "type": "address"
        }
      ],
      "name": "voters",
      "outputs": [
        {
          "name": "voteCount",
          "type": "uint256"
        },
        {
          "name": "voted",
          "type": "bool"
        },
        {
          "name": "delegate",
          "type": "address"
        },
        {
          "name": "voteName",
          "type": "uint256"
        }
      ],
      "payable": false,
      "stateMutability": "view",
      "type": "function",
      "signature": "0xa3ec138d"
    },
    {
      "inputs": [
        {
          "name": "names",
          "type": "uint256[]"
        }
      ],
      "payable": false,
      "stateMutability": "nonpayable",
      "type": "constructor",
      "signature": "constructor"
    },
    {
      "constant": false,
      "inputs": [
        {
          "name": "name",
          "type": "uint256"
        }
      ],
      "name": "queryVote",
      "outputs": [
        {
          "name": "",
          "type": "uint256"
        }
      ],
      "payable": false,
      "stateMutability": "nonpayable",
      "type": "function",
      "signature": "0x70e5bf4d"
    },
    {
      "constant": false,
      "inputs": [
        {
          "name": "name",
          "type": "uint256"
        }
      ],
      "name": "castVote",
      "outputs": [],
      "payable": false,
      "stateMutability": "nonpayable",
      "type": "function",
      "signature": "0x3eb76b9c"
    },
    {
      "constant": false,
      "inputs": [
        {
          "name": "voter",
          "type": "address"
        }
      ],
      "name": "giveRightToVote",
      "outputs": [],
      "payable": false,
      "stateMutability": "nonpayable",
      "type": "function",
      "signature": "0x9e7b8d61"
    },
    {
      "constant": false,
      "inputs": [
        {
          "name": "other",
          "type": "address"
        }
      ],
      "name": "delegate",
      "outputs": [],
      "payable": false,
      "stateMutability": "nonpayable",
      "type": "function",
      "signature": "0x5c19a95c"
    }
  ],
  "bytecode": "0x608060405234801561001057600080fd5b50604051610bd5380380610bd58339810180604052602081101561003357600080fd5b81019080805164010000000081111561004b57600080fd5b8281019050602081018481111561006157600080fd5b815185602082028301116401000000008211171561007e57600080fd5b505092919050505033600360006101000a81548173ffffffffffffffffffffffffffffffffffffffff021916908373ffffffffffffffffffffffffffffffffffffffff160217905550600160026000600360009054906101000a900473ffffffffffffffffffffffffffffffffffffffff1673ffffffffffffffffffffffffffffffffffffffff1673ffffffffffffffffffffffffffffffffffffffff1681526020019081526020016000206000018190555080600090805190602001906101479291906101a0565b5060008090505b60008054905081101561019957600060016000808481548110151561016f57fe5b9060005260206000200154815260200190815260200160002081905550808060010191505061014e565b5050610212565b8280548282559060005260206000209081019282156101dc579160200282015b828111156101db5782518255916020019190600101906101c0565b5b5090506101e991906101ed565b5090565b61020f91905b8082111561020b5760008160009055506001016101f3565b5090565b90565b6109b4806102216000396000f3fe60806040526004361061008e576000357c0100000000000000000000000000000000000000000000000000000000900463ffffffff1680632e4176cf146100935780633eb76b9c146100ea5780633f59cd45146101255780635c19a95c1461017457806370e5bf4d146101c55780638233ce15146102145780639e7b8d6114610263578063a3ec138d146102b4575b600080fd5b34801561009f57600080fd5b506100a861035e565b604051808273ffffffffffffffffffffffffffffffffffffffff1673ffffffffffffffffffffffffffffffffffffffff16815260200191505060405180910390f35b3480156100f657600080fd5b506101236004803603602081101561010d57600080fd5b8101908080359060200190929190505050610384565b005b34801561013157600080fd5b5061015e6004803603602081101561014857600080fd5b8101908080359060200190929190505050610434565b6040518082815260200191505060405180910390f35b34801561018057600080fd5b506101c36004803603602081101561019757600080fd5b81019080803573ffffffffffffffffffffffffffffffffffffffff169060200190929190505050610457565b005b3480156101d157600080fd5b506101fe600480360360208110156101e857600080fd5b8101908080359060200190929190505050610742565b6040518082815260200191505060405180910390f35b34801561022057600080fd5b5061024d6004803603602081101561023757600080fd5b81019080803590602001909291905050506107bf565b6040518082815260200191505060405180910390f35b34801561026f57600080fd5b506102b26004803603602081101561028657600080fd5b81019080803573ffffffffffffffffffffffffffffffffffffffff1690602001909291905050506107d7565b005b3480156102c057600080fd5b50610303600480360360208110156102d757600080fd5b81019080803573ffffffffffffffffffffffffffffffffffffffff16906020019092919050505061092b565b60405180858152602001841515151581526020018373ffffffffffffffffffffffffffffffffffffffff1673ffffffffffffffffffffffffffffffffffffffff16815260200182815260200194505050505060405180910390f35b600360009054906101000a900473ffffffffffffffffffffffffffffffffffffffff1681565b6000600260003373ffffffffffffffffffffffffffffffffffffffff1673ffffffffffffffffffffffffffffffffffffffff16815260200190815260200160002090508060010160009054906101000a900460ff161515156103e557600080fd5b60018160010160006101000a81548160ff021916908315150217905550818160020181905550806000015460016000848152602001908152602001600020600082825401925050819055505050565b60008181548110151561044357fe5b906000526020600020016000915090505481565b6000600260003373ffffffffffffffffffffffffffffffffffffffff1673ffffffffffffffffffffffffffffffffffffffff1681526020019081526020016000209050600015158160010160009054906101000a900460ff1615151415156104be57600080fd5b3373ffffffffffffffffffffffffffffffffffffffff168273ffffffffffffffffffffffffffffffffffffffff16141515156104f957600080fd5b5b600073ffffffffffffffffffffffffffffffffffffffff16600260008473ffffffffffffffffffffffffffffffffffffffff1673ffffffffffffffffffffffffffffffffffffffff16815260200190815260200160002060010160019054906101000a900473ffffffffffffffffffffffffffffffffffffffff1673ffffffffffffffffffffffffffffffffffffffff1614151561063757600260008373ffffffffffffffffffffffffffffffffffffffff1673ffffffffffffffffffffffffffffffffffffffff16815260200190815260200160002060010160019054906101000a900473ffffffffffffffffffffffffffffffffffffffff1691503373ffffffffffffffffffffffffffffffffffffffff168273ffffffffffffffffffffffffffffffffffffffff161415151561063257600080fd5b6104fa565b60018160010160006101000a81548160ff021916908315150217905550818160010160016101000a81548173ffffffffffffffffffffffffffffffffffffffff021916908373ffffffffffffffffffffffffffffffffffffffff1602179055506000600260008473ffffffffffffffffffffffffffffffffffffffff1673ffffffffffffffffffffffffffffffffffffffff1681526020019081526020016000209050600115158160010160009054906101000a900460ff161515141561072657816000015460016000836002015481526020019081526020016000206000828254019250508190555061073d565b816000015481600001600082825401925050819055505b505050565b6000806000905060008090505b60008054905081101561078f578360008281548110151561076c57fe5b9060005260206000200154141561078257600191505b808060010191505061074f565b50600115158115151415156107a357600080fd5b6001600084815260200190815260200160002054915050919050565b60016020528060005260406000206000915090505481565b600360009054906101000a900473ffffffffffffffffffffffffffffffffffffffff1673ffffffffffffffffffffffffffffffffffffffff163373ffffffffffffffffffffffffffffffffffffffff16148015610887575060001515600260008373ffffffffffffffffffffffffffffffffffffffff1673ffffffffffffffffffffffffffffffffffffffff16815260200190815260200160002060010160009054906101000a900460ff161515145b80156108d557506000600260008373ffffffffffffffffffffffffffffffffffffffff1673ffffffffffffffffffffffffffffffffffffffff16815260200190815260200160002060000154145b15156108e057600080fd5b6001600260008373ffffffffffffffffffffffffffffffffffffffff1673ffffffffffffffffffffffffffffffffffffffff1681526020019081526020016000206000018190555050565b60026020528060005260406000206000915090508060000154908060010160009054906101000a900460ff16908060010160019054906101000a900473ffffffffffffffffffffffffffffffffffffffff1690806002015490508456fea165627a7a723058207ba7c3114c378b8062e9c33bc504488f1c60a92df58572ba02db272445b219070029",
  "source": "pragma solidity 0.5.0;\r\n\r\ncontract VotingSystem {\r\n  //投票人\r\n   struct Voter {\r\n        uint voteCount; // 票数\r\n        bool voted;  // 是否投票\r\n        address delegate; // 委托人\r\n       // uint voteNumber;   // 候选人序号\r\n        uint voteName;// 候选人名称\r\n  }\r\n  modifier restricted() {\r\n    if (msg.sender == chairperson) _;\r\n  }\r\n\r\n  //候选人数组\r\n  uint[] public candi_Array;\r\n  \r\n  //投票箱:<候选人名字,票数>的哈希表\r\n  mapping (uint => uint) public ballotBox;\r\n  \r\n  //投票人映射\r\n  mapping(address => Voter) public voters;\r\n\r\n  address public chairperson;\r\n\r\n  //构造函数将候选人bytes32数组作为参数初始化\r\n   constructor(uint[] memory names) public {\r\n    chairperson = msg.sender;\r\n    voters[chairperson].voteCount = 1;\r\n    candi_Array = names;\r\n    for(uint i = 0; i < candi_Array.length; i++) {\r\n      ballotBox[ candi_Array[i] ] = 0;\r\n    }\r\n  }\r\n /* function VotingSystem(uint[] names) {\r\n    chairperson = msg.sender;\r\n    voters[chairperson].voteCount = 1;\r\n\r\n    candi_Array = names;\r\n  }\r\n*/\r\n  // 查询候选人的票数\r\n  function queryVote(uint name) public  returns (uint) {\r\n    \r\n    bool flag=false;\r\n     for(uint i = 0; i < candi_Array.length; i++) {\r\n      if (candi_Array[i] == name) {\r\n        flag=true;\r\n       // return ballotBox[name];\r\n      }\r\n    }\r\n    require( flag==true);\r\n    return ballotBox[name];\r\n    //if(flag == false) throw;\r\n  }\r\n\r\n  // 投票\r\n  function castVote(uint name) public {\r\n\r\n    Voter storage sender = voters[msg.sender];\r\n    require(!sender.voted);\r\n    \r\n    sender.voted = true;\r\n    sender.voteName = name;\r\n    ballotBox[name] += sender.voteCount;\r\n    //if(flag == false) throw;\r\n\r\n  }\r\n  \r\n  //分发选票，一人一张\r\n  function giveRightToVote(address voter) public{\r\n    require(\r\n            (msg.sender == chairperson) &&\r\n            (voters[voter].voted == false) &&\r\n            (voters[voter].voteCount == 0)\r\n        );\r\n        voters[voter].voteCount = 1;\r\n  }\r\n  \r\n  //把自己的投票授权给别人\r\n function delegate(address other) public {\r\n        \r\n        Voter storage sender = voters[msg.sender];\r\n        //发送方需要没有投票过\r\n        require(sender.voted == false);\r\n        //不能自己委托自己\r\n        require(other != msg.sender);\r\n\r\n        //如果委托人也有委托人，就往前找，直到直到最终的委托人\r\n        while (voters[other].delegate != address(0)) {\r\n            other = voters[other].delegate;\r\n            require(other != msg.sender);\r\n        }\r\n\r\n        \r\n        sender.voted = true;\r\n        sender.delegate = other;\r\n        Voter storage reciver = voters[other];\r\n        if (reciver.voted == true) {\r\n           //给委托人权重的人投票\r\n            ballotBox[reciver.voteName] += sender.voteCount;\r\n        } else {\r\n            //增加票数\r\n            reciver.voteCount += sender.voteCount;\r\n        }\r\n    }\r\n}",
  "sourcePath": "D:/bcproject/contracts/VotingSystem.sol",
  "compiler": {
    "name": "solc",
    "version": "0.5.0+commit.1d4f565a.Emscripten.clang"
  },
  "schemaVersion": "3.0.0",
  "updatedAt": "2018-12-28T13:08:49.196Z",
  "devdoc": {
    "methods": {}
  },
  "userdoc": {
    "methods": {}
  }
}